{
  "contractName": "mytoken",
  "abi": [
    {
      "anonymous": false,
      "inputs": [
        {
          "indexed": false,
          "internalType": "address",
          "name": "whoCalled",
          "type": "address"
        },
        {
          "indexed": false,
          "internalType": "int256",
          "name": "param",
          "type": "int256"
        },
        {
          "indexed": false,
          "internalType": "int256",
          "name": "callsSoFar",
          "type": "int256"
        }
      ],
      "name": "functionCalled",
      "type": "event"
    },
    {
      "inputs": [],
      "name": "manyCalls",
      "outputs": [
        {
          "internalType": "int256",
          "name": "",
          "type": "int256"
        }
      ],
      "stateMutability": "view",
      "type": "function",
      "constant": true
    },
    {
      "inputs": [
        {
          "internalType": "int256",
          "name": "param",
          "type": "int256"
        }
      ],
      "name": "nothing",
      "outputs": [
        {
          "internalType": "int256",
          "name": "",
          "type": "int256"
        }
      ],
      "stateMutability": "pure",
      "type": "function",
      "constant": true
    },
    {
      "inputs": [
        {
          "internalType": "int256",
          "name": "param",
          "type": "int256"
        }
      ],
      "name": "callFunction",
      "outputs": [],
      "stateMutability": "nonpayable",
      "type": "function"
    },
    {
      "inputs": [],
      "name": "viewCalls",
      "outputs": [
        {
          "internalType": "int256",
          "name": "",
          "type": "int256"
        }
      ],
      "stateMutability": "view",
      "type": "function",
      "constant": true
    }
  ],
  "bytecode": "0x608060405234801561001057600080fd5b506101a6806100206000396000f3fe608060405234801561001057600080fd5b506004361061004c5760003560e01c8063840af0f3146100515780638432e1061461006657806389a3528c14610084578063a6abbca51461008c575b600080fd5b61006461005f366004610102565b61009f565b005b61006e6100f3565b60405161007b919061013b565b60405180910390f35b61006e6100f9565b61006e61009a366004610102565b6100ff565b6000805490806100ae83610144565b91905055507f72a1f456390ce9342f023d92bc55bf4c551980c64c6f604f3489b65b5330bb6b33826000546040516100e89392919061011a565b60405180910390a150565b60005481565b60005490565b90565b600060208284031215610113578081fd5b5035919050565b6001600160a01b039390931683526020830191909152604082015260600190565b90815260200190565b60006001600160ff1b0382141561016957634e487b7160e01b81526011600452602481fd5b506001019056fea26469706673582212203c05741d384c3baedf3dadb3c3cb847aab96b38b5ec6f37b27d7c91024b868e664736f6c63430008000033",
  "immutableReferences": {},
  "source": "pragma solidity ^0.8;\n\ncontract mytoken {\n    event functionCalled(address whoCalled, int param, int callsSoFar);\n\n    int public manyCalls;\n\n    function nothing(int param) external pure returns (int) {\n        return param;\n    }\n\n    function callFunction(int param) external {\n        manyCalls++;\n        emit functionCalled(msg.sender, param, manyCalls);\n    }\n\n    function viewCalls() external view returns (int) {\n        return manyCalls;\n    }\n}\n\n",
  "sourcePath": "/Users/julio/go/src/github.com/juliofaura/smart-contracts/energy/contracts/mytoken.sol",
  "compiler": {
    "name": "solc",
    "version": "0.8.0+commit.c7dfd78e.Emscripten.clang"
  },
  "schemaVersion": "3.3.3",
  "updatedAt": "2020-12-28T16:35:19.174Z",
  "networkType": "ethereum",
  "devdoc": {
    "kind": "dev",
    "methods": {},
    "version": 1
  },
  "userdoc": {
    "kind": "user",
    "methods": {},
    "version": 1
  }
}